{
  "contractName": "DolphinSightings",
  "abi": [
    {
      "constant": true,
      "inputs": [],
      "name": "guideFee",
      "outputs": [
        {
          "name": "",
          "type": "uint256"
        }
      ],
      "payable": false,
      "stateMutability": "view",
      "type": "function",
      "signature": "0x0721c603"
    },
    {
      "constant": true,
      "inputs": [
        {
          "name": "",
          "type": "uint256"
        }
      ],
      "name": "rivers",
      "outputs": [
        {
          "name": "",
          "type": "string"
        }
      ],
      "payable": false,
      "stateMutability": "view",
      "type": "function",
      "signature": "0x49d03b06"
    },
    {
      "constant": true,
      "inputs": [],
      "name": "travelFee",
      "outputs": [
        {
          "name": "",
          "type": "uint256"
        }
      ],
      "payable": false,
      "stateMutability": "view",
      "type": "function",
      "signature": "0xce8e57ab"
    },
    {
      "constant": false,
      "inputs": [],
      "name": "travelDownRiver",
      "outputs": [],
      "payable": true,
      "stateMutability": "payable",
      "type": "function",
      "signature": "0xd50a33bc"
    }
  ],
  "bytecode": "0x608060405266071afd498d0000600155662386f26fc10000600255610120604051908101604052806040805190810160405280600681526020017f616d617a6f6e000000000000000000000000000000000000000000000000000081525081526020016040805190810160405280600881526020017f626f6c697669616e00000000000000000000000000000000000000000000000081525081526020016040805190810160405280600781526020017f6f72696e6f636f0000000000000000000000000000000000000000000000000081525081526020016040805190810160405280600681526020017f67616e676573000000000000000000000000000000000000000000000000000081525081526020016040805190810160405280600581526020017f696e64757300000000000000000000000000000000000000000000000000000081525081526020016040805190810160405280600881526020017f697272617761647900000000000000000000000000000000000000000000000081525081526020016040805190810160405280600681526020017f6d656b6f6e67000000000000000000000000000000000000000000000000000081525081526020016040805190810160405280600781526020017f6d6168616b616d0000000000000000000000000000000000000000000000000081525081526020016040805190810160405280600781526020017f79616e67747a6500000000000000000000000000000000000000000000000000815250815250600390600961024892919061025b565b5034801561025557600080fd5b506103c7565b826009810192821561029d579160200282015b8281111561029c57825182908051906020019061028c9291906102ae565b509160200191906001019061026e565b5b5090506102aa919061032e565b5090565b828054600181600116156101000203166002900490600052602060002090601f016020900481019282601f106102ef57805160ff191683800117855561031d565b8280016001018555821561031d579182015b8281111561031c578251825591602001919060010190610301565b5b50905061032a919061035a565b5090565b61035791905b80821115610353576000818161034a919061037f565b50600101610334565b5090565b90565b61037c91905b80821115610378576000816000905550600101610360565b5090565b90565b50805460018160011615610100020316600290046000825580601f106103a557506103c4565b601f0160209004906000526020600020908101906103c3919061035a565b5b50565b6102c6806103d66000396000f3fe608060405260043610610062576000357c0100000000000000000000000000000000000000000000000000000000900463ffffffff1680630721c6031461006757806349d03b0614610092578063ce8e57ab14610146578063d50a33bc14610171575b600080fd5b34801561007357600080fd5b5061007c61017b565b6040518082815260200191505060405180910390f35b34801561009e57600080fd5b506100cb600480360360208110156100b557600080fd5b8101908080359060200190929190505050610181565b6040518080602001828103825283818151815260200191508051906020019080838360005b8381101561010b5780820151818401526020810190506100f0565b50505050905090810190601f1680156101385780820380516001836020036101000a031916815260200191505b509250505060405180910390f35b34801561015257600080fd5b5061015b610233565b6040518082815260200191505060405180910390f35b610179610239565b005b60025481565b60038160098110151561019057fe5b016000915090508054600181600116156101000203166002900480601f01602080910402602001604051908101604052809291908181526020018280546001816001161561010002031660029004801561022b5780601f106102005761010080835404028352916020019161022b565b820191906000526020600020905b81548152906001019060200180831161020e57829003601f168201915b505050505081565b60015481565b600154341015151561024a57600080fd5b6000803373ffffffffffffffffffffffffffffffffffffffff1673ffffffffffffffffffffffffffffffffffffffff1681526020019081526020016000206000815480929190600101919050555056fea165627a7a72305820f1a0a870ae36185741ce7084b5a9576baf50f0fa798c375b0e2a1e1fb382d4d80029",
  "source": "pragma solidity ^0.5.0;\n\ncontract DolphinSightings {\n\n  /*** GAME STATE ***/\n\n  mapping (address => uint256) addressSightingCount;\n\n  uint256 public travelFee = 2 finney;\n  uint256 public guideFee = 10 finney;\n\n  struct riverDolphin {\n    uint16 riverIndex;\n    string name;\n  }\n\n  /*** CONSTANTS ***/\n  \n  // eventually split these groups of 3 rivers into different regions\n  // can be one of East Asia, Indus, or South America\n  string[9] public rivers = [\n                             \"amazon\",\n                             \"bolivian\",\n                             \"orinoco\",\n                             \"ganges\",\n                             \"indus\",\n                             \"irrawady\",\n                             \"mekong\",\n                             \"mahakam\",\n                             \"yangtze\"\n                             ];\n\n  /*** FUNCTIONS ***/\n\n  \n  // for now a travel results in a sighting\n  // eventually introduce a bit of randomness\n  function travelDownRiver()\n    external\n    payable\n  {\n    require(msg.value >= travelFee);\n    \n    addressSightingCount[msg.sender]++;\n  }\n\n}\n\n",
  "sourcePath": "/home/robert/rob/april_explorations/truffle-reagent/contracts/Dolphin.sol",
  "compiler": {
    "name": "solc",
    "version": "0.5.0+commit.1d4f565a.Emscripten.clang"
  },
  "schemaVersion": "3.0.3",
  "updatedAt": "2019-04-14T00:26:08.073Z",
  "devdoc": {
    "methods": {}
  },
  "userdoc": {
    "methods": {
      "travelDownRiver()": {
        "notice": "* FUNCTIONS **"
      }
    }
  }
}